{
  "contractName": "CoinFlip",
  "abi": [
    {
      "inputs": [],
      "stateMutability": "nonpayable",
      "type": "constructor"
    },
    {
      "anonymous": false,
      "inputs": [
        {
          "indexed": true,
          "internalType": "address",
          "name": "player",
          "type": "address"
        },
        {
          "indexed": false,
          "internalType": "bool",
          "name": "guess",
          "type": "bool"
        },
        {
          "indexed": false,
          "internalType": "uint256",
          "name": "amount",
          "type": "uint256"
        }
      ],
      "name": "BetPlaced",
      "type": "event"
    },
    {
      "anonymous": false,
      "inputs": [
        {
          "indexed": true,
          "internalType": "address",
          "name": "player",
          "type": "address"
        },
        {
          "indexed": false,
          "internalType": "bool",
          "name": "result",
          "type": "bool"
        },
        {
          "indexed": false,
          "internalType": "uint256",
          "name": "amount",
          "type": "uint256"
        }
      ],
      "name": "BetResult",
      "type": "event"
    },
    {
      "anonymous": false,
      "inputs": [
        {
          "indexed": true,
          "internalType": "address",
          "name": "from",
          "type": "address"
        },
        {
          "indexed": false,
          "internalType": "uint256",
          "name": "amount",
          "type": "uint256"
        }
      ],
      "name": "Deposited",
      "type": "event"
    },
    {
      "anonymous": false,
      "inputs": [
        {
          "indexed": true,
          "internalType": "address",
          "name": "to",
          "type": "address"
        },
        {
          "indexed": false,
          "internalType": "uint256",
          "name": "amount",
          "type": "uint256"
        }
      ],
      "name": "Withdrawn",
      "type": "event"
    },
    {
      "inputs": [],
      "name": "owner",
      "outputs": [
        {
          "internalType": "address",
          "name": "",
          "type": "address"
        }
      ],
      "stateMutability": "view",
      "type": "function",
      "constant": true
    },
    {
      "stateMutability": "payable",
      "type": "receive",
      "payable": true
    },
    {
      "inputs": [
        {
          "internalType": "bool",
          "name": "_heads",
          "type": "bool"
        }
      ],
      "name": "flip",
      "outputs": [],
      "stateMutability": "payable",
      "type": "function",
      "payable": true
    },
    {
      "inputs": [],
      "name": "deposit",
      "outputs": [],
      "stateMutability": "payable",
      "type": "function",
      "payable": true
    },
    {
      "inputs": [
        {
          "internalType": "uint256",
          "name": "_amount",
          "type": "uint256"
        }
      ],
      "name": "withdraw",
      "outputs": [],
      "stateMutability": "nonpayable",
      "type": "function"
    }
  ],
  "bytecode": "0x608060405234801561001057600080fd5b50336000806101000a81548173ffffffffffffffffffffffffffffffffffffffff021916908373ffffffffffffffffffffffffffffffffffffffff160217905550610bab806100606000396000f3fe6080604052600436106100435760003560e01c80631d263f671461004f5780632e1a7d4d1461006b5780638da5cb5b14610094578063d0e30db0146100bf5761004a565b3661004a57005b600080fd5b610069600480360381019061006491906105ef565b6100c9565b005b34801561007757600080fd5b50610092600480360381019061008d9190610652565b610307565b005b3480156100a057600080fd5b506100a96104b0565b6040516100b691906106c0565b60405180910390f35b6100c76104d4565b005b6000341161010c576040517f08c379a000000000000000000000000000000000000000000000000000000000815260040161010390610738565b60405180910390fd5b6002346101199190610787565b47101561015b576040517f08c379a00000000000000000000000000000000000000000000000000000000081526004016101529061083b565b60405180910390fd5b60006002424433604051602001610174939291906108c4565b6040516020818303038152906040528051906020012060001c6101979190610930565b9050600080821490503373ffffffffffffffffffffffffffffffffffffffff167fe57fa5a543ebcdebf2a7d7102ac913e14454cec006468e43a6916e95bdfcea9e84346040516101e892919061097f565b60405180910390a2801515831515036102b0573373ffffffffffffffffffffffffffffffffffffffff166108fc6002346102229190610787565b9081150290604051600060405180830381858888f1935050505015801561024d573d6000803e3d6000fd5b503373ffffffffffffffffffffffffffffffffffffffff167f883f4d0c1f1f46295aca1500eb9887530d302925a814aa0a107fc8ca8b77971d60016002346102959190610787565b6040516102a392919061097f565b60405180910390a2610302565b3373ffffffffffffffffffffffffffffffffffffffff167f883f4d0c1f1f46295aca1500eb9887530d302925a814aa0a107fc8ca8b77971d6000806040516102f99291906109ed565b60405180910390a25b505050565b60008054906101000a900473ffffffffffffffffffffffffffffffffffffffff1673ffffffffffffffffffffffffffffffffffffffff163373ffffffffffffffffffffffffffffffffffffffff1614610395576040517f08c379a000000000000000000000000000000000000000000000000000000000815260040161038c90610a62565b60405180910390fd5b804710156103d8576040517f08c379a00000000000000000000000000000000000000000000000000000000081526004016103cf90610ace565b60405180910390fd5b60008054906101000a900473ffffffffffffffffffffffffffffffffffffffff1673ffffffffffffffffffffffffffffffffffffffff166108fc829081150290604051600060405180830381858888f1935050505015801561043e573d6000803e3d6000fd5b5060008054906101000a900473ffffffffffffffffffffffffffffffffffffffff1673ffffffffffffffffffffffffffffffffffffffff167f7084f5476618d8e60b11ef0d7d3f06914655adb8793e28ff7f018d4c76d505d5826040516104a59190610aee565b60405180910390a250565b60008054906101000a900473ffffffffffffffffffffffffffffffffffffffff1681565b60008054906101000a900473ffffffffffffffffffffffffffffffffffffffff1673ffffffffffffffffffffffffffffffffffffffff163373ffffffffffffffffffffffffffffffffffffffff1614610562576040517f08c379a000000000000000000000000000000000000000000000000000000000815260040161055990610b55565b60405180910390fd5b3373ffffffffffffffffffffffffffffffffffffffff167f2da466a7b24304f47e87fa2e1e5a81b9831ce54fec19055ce277ca2f39ba42c4346040516105a89190610aee565b60405180910390a2565b600080fd5b60008115159050919050565b6105cc816105b7565b81146105d757600080fd5b50565b6000813590506105e9816105c3565b92915050565b600060208284031215610605576106046105b2565b5b6000610613848285016105da565b91505092915050565b6000819050919050565b61062f8161061c565b811461063a57600080fd5b50565b60008135905061064c81610626565b92915050565b600060208284031215610668576106676105b2565b5b60006106768482850161063d565b91505092915050565b600073ffffffffffffffffffffffffffffffffffffffff82169050919050565b60006106aa8261067f565b9050919050565b6106ba8161069f565b82525050565b60006020820190506106d560008301846106b1565b92915050565b600082825260208201905092915050565b7f596f75206e65656420746f2062657420736f6d6520746f6b656e730000000000600082015250565b6000610722601b836106db565b915061072d826106ec565b602082019050919050565b6000602082019050818103600083015261075181610715565b9050919050565b7f4e487b7100000000000000000000000000000000000000000000000000000000600052601160045260246000fd5b60006107928261061c565b915061079d8361061c565b92508282026107ab8161061c565b915082820484148315176107c2576107c1610758565b5b5092915050565b7f496e73756666696369656e7420636f6e74726163742062616c616e636520746f60008201527f20706179206f7574000000000000000000000000000000000000000000000000602082015250565b60006108256028836106db565b9150610830826107c9565b604082019050919050565b6000602082019050818103600083015261085481610818565b9050919050565b6000819050919050565b6108766108718261061c565b61085b565b82525050565b60008160601b9050919050565b60006108948261087c565b9050919050565b60006108a682610889565b9050919050565b6108be6108b98261069f565b61089b565b82525050565b60006108d08286610865565b6020820191506108e08285610865565b6020820191506108f082846108ad565b601482019150819050949350505050565b7f4e487b7100000000000000000000000000000000000000000000000000000000600052601260045260246000fd5b600061093b8261061c565b91506109468361061c565b92508261095657610955610901565b5b828206905092915050565b61096a816105b7565b82525050565b6109798161061c565b82525050565b60006040820190506109946000830185610961565b6109a16020830184610970565b9392505050565b6000819050919050565b6000819050919050565b60006109d76109d26109cd846109a8565b6109b2565b61061c565b9050919050565b6109e7816109bc565b82525050565b6000604082019050610a026000830185610961565b610a0f60208301846109de565b9392505050565b7f4f6e6c7920746865206f776e65722063616e2077697468647261770000000000600082015250565b6000610a4c601b836106db565b9150610a5782610a16565b602082019050919050565b60006020820190508181036000830152610a7b81610a3f565b9050919050565b7f496e73756666696369656e7420636f6e74726163742062616c616e6365000000600082015250565b6000610ab8601d836106db565b9150610ac382610a82565b602082019050919050565b60006020820190508181036000830152610ae781610aab565b9050919050565b6000602082019050610b036000830184610970565b92915050565b7f4f6e6c7920746865206f776e65722063616e206465706f736974000000000000600082015250565b6000610b3f601a836106db565b9150610b4a82610b09565b602082019050919050565b60006020820190508181036000830152610b6e81610b32565b905091905056fea2646970667358221220715d25a786f27fde72d7cc3dfc85265a69a9500a5cd93ec2fb24671953b8706264736f6c63430008120033",
  "immutableReferences": {},
  "source": "// SPDX-License-Identifier: MIT\r\npragma solidity ^0.8.0;\r\n\r\ncontract CoinFlip {\r\n    address public owner;\r\n\r\n    event BetPlaced(address indexed player, bool guess, uint256 amount);\r\n    event BetResult(address indexed player, bool result, uint256 amount);\r\n    event Deposited(address indexed from, uint256 amount);\r\n    event Withdrawn(address indexed to, uint256 amount);\r\n\r\n    constructor() {\r\n        owner = msg.sender;\r\n    }\r\n\r\n    function flip(bool _heads) public payable {\r\n        require(msg.value > 0, \"You need to bet some tokens\");\r\n        require(address(this).balance >= msg.value * 2, \"Insufficient contract balance to pay out\");\r\n\r\n        // Generate a pseudo-random number (still not secure for real applications)\r\n        uint256 random = uint256(keccak256(abi.encodePacked(block.timestamp, block.difficulty, msg.sender))) % 2;\r\n        bool result = (random == 0);\r\n\r\n        // Emit event when bet is placed\r\n        emit BetPlaced(msg.sender, _heads, msg.value);\r\n\r\n        // Pay out if the guess is correct\r\n        if (_heads == result) {\r\n            payable(msg.sender).transfer(msg.value * 2);\r\n            // Emit event for win\r\n            emit BetResult(msg.sender, true, msg.value * 2);\r\n        } else {\r\n            // Emit event for loss\r\n            emit BetResult(msg.sender, false, 0);\r\n        }\r\n    }\r\n\r\n    // Function to allow the owner to deposit funds into the contract\r\n    function deposit() external payable {\r\n        require(msg.sender == owner, \"Only the owner can deposit\");\r\n        // Emit event for deposit\r\n        emit Deposited(msg.sender, msg.value);\r\n    }\r\n\r\n    // Function to withdraw funds from the contract (only by owner)\r\n    function withdraw(uint256 _amount) external {\r\n        require(msg.sender == owner, \"Only the owner can withdraw\");\r\n        require(address(this).balance >= _amount, \"Insufficient contract balance\");\r\n        payable(owner).transfer(_amount);\r\n        // Emit event for withdrawal\r\n        emit Withdrawn(owner, _amount);\r\n    }\r\n\r\n    // Fallback function to receive ETH\r\n    receive() external payable {}\r\n}\r\n",
  "sourcePath": "C:\\Users\\abhij\\OneDrive\\Documents\\Blockchain\\coinflip-game\\contracts\\CoinFlip.sol",
  "compiler": {
    "name": "solc",
    "version": "0.8.18+commit.87f61d96.Emscripten.clang"
  },
  "schemaVersion": "3.4.14",
  "updatedAt": "2024-09-12T14:16:47.300Z",
  "networkType": "ethereum",
  "devdoc": {
    "kind": "dev",
    "methods": {},
    "version": 1
  },
  "userdoc": {
    "kind": "user",
    "methods": {},
    "version": 1
  }
}